:020000040000FA
:0400000080EF7EF01F
:08FCF800000000000000000004
:10FD00000401106B01014A9D0201170E726F150E5E
:10FD1000176F8A0EAD6FB00EAA6F800EAB6F640EB8
:10FD2000006E0501B5D8550AD8A434D1320E006E44
:10FD3000420EC6D8FC6A0A680B68C8D8046E550E15
:10FD4000045C2BE0C3D8056EC1D8066EBFD8076E21
:10FD5000BDD8086E08C509F5095203E1570E045CC9
:10FD600006E101EE0EF1B2D8EE6E092EFCD7AED848
:10FD7000ADD80A5210E10B520EE10450490A71E06D
:10FD80000C0A0EE0120A0FE00F0A3BE00A0AD8B490
:10FD9000DDD03F0E03D0430E01D0420E91D8CAD71A
:10FDA0003AD84B0EFBD7380E0518D8B4A9D033D8A3
:10FDB0000550061008E1800E0E6EEF0E0F6E7E0EDF
:10FDC000106EF00E116E01EE0EF10001040E416F87
:10FDD000EEC446F0EEC447F03BD80906092EF8D72A
:10FDE000416B0550F86E0650F76EF66A01EE0EF1A3
:10FDF0000900F550EE6228D0092EFAD705014B0E06
:10FE0000CDD701D8C7D04B0E5BD80201AFABFED720
:10FE1000B1AFFED712000850071012E1FD0E065CCC
:10FE2000000E05580FE200010550456F0650446F63
:10FE3000436B060E416F0CD841BF06D0050112007E
:10FE40004C0EACD7410EAAD7416B0501460EA6D782
:10FE5000D69E550E426FAA0E426F408140B1FED72A
:10FE600012000A680B684B0E33D8F86AF768E40E84
:10FE7000F66E1A0E096E2ED83F0EF86EF768FE0E5B
:10FE8000F66E020E096E26D80A501AD80B5086D785
:10FE900000C501F5090E026E036AAFC2E8F4E8A2DC
:10FEA0000BD0032EFAD7022EF7D7012EF3D7640E0C
:10FEB000005CD8B46FD03ED70201A05105011200FA
:10FEC0000201AFB9FED7A26F05011200E1DF08D031
:10FED00007D8F6D70900F550FBDF092EFBD7120033
:10FEE0000C6E0A1A080E0D6ED8900B360A3604E313
:10FEF000210E0B1A100E0A1A0D2EF6D70C501200F6
:10FF0000010E06609FD70804072401E399D7085023
:10FF1000096E01EE0EF10001380E456F0650446F78
:10FF20000750436F0FD8EF6208D8EE628DD7432B8E
:10FF3000092EF8D705014B0E31D7030E416FEFC4E0
:10FF400046F086DF416B4081465112000850D8A42C
:10FF500077D70A680B684B0EBBDF0550F86E06506A
:10FF6000F76E0750F66E380E051802E0B3DF8CD737
:10FF70000001380E456F0650446F0750436F010E65
:10FF8000416F408146510501A3DF0001092EF9D7D9
:0AFF900005017AD7F86A7CEF7EF0D5
:0CFFE4004D57420104230101000000FC05
:0EFFF000F80100010038000001C1A40000006B
:020000040030CA
:0B0000008C1DE5F69FFFFFFFFFFFFFD8
:00000001FF
