:020000040000FA
:1000000000000000A0EF00F0036A096E0A6A009683
:100010000350D8B40086050E026E270E086E100E2F
:100020000CD8030E086EE80E08D8086A640E05D8CE
:10003000086A0A0E02D8095007D0076E0A50066EE9
:100040000950056E25D80550056E024E00960350E6
:1000500002E0025C07E20550D8A4009600B602D088
:10006000300F01D0120001A205D001B003D001B2BF
:10007000EE6E1200066AFE0F056E000000D000D082
:10008000E86A065AD8A01200050600D000D0F5D7BD
:100090000A6A096A100EF36E063409360A360750EA
:1000A000095C08500A5805E30750095E08500A5ACF
:1000B000D88005360636F32EEFD705501200000122
:1000C000416B05010900F55002E0EE6EFBD712000E
:1000D0005431205242342D3E5243362072656164C1
:1000E0003A200000202028303130203D20776972EE
:1000F00065312066697474656429000054322052A9
:1001000043362D3E52423420726561643A2000002D
:100110005433206C6F772073616D706C657320525F
:1001200042353D0020202873696D696C6172203D65
:1001300020776972653220666974746564290000ED
:10014000006A0001416B0401006B086B106B186BB7
:10015000206B286B036B0B6B136B1B6B236B2B6B75
:10016000046B0C6B146B1C6B246B2C6B0001706BA1
:10017000746B600EAD6F080EB16F0401006B086BFD
:10018000106B01014A8F0401118F01014A8D040196
:10019000118D010141894999320E6CDF01014199AC
:1001A000140E68DF01010B8052AD0B904189140ED3
:1001B00061DF01010B8252AD0B924199140E5ADF9F
:1001C00001010B8452AD0B944189498904010989CD
:1001D000119D0101428D4A9D320E4CDF0101429D6D
:1001E000140E48DF01010B8651A90B96428D140EA7
:1001F00041DF01010B8851A90B98429D140E3ADF93
:1002000001010B8A51A90B9A428D4A8D040109996B
:100210000101418949990201180E0D6F0D0E746F8D
:10022000C26B8A0EC16FB00EBE6F800EBF6F05012C
:10023000C3C2E8F4E8B20BD0B4C24DF53F0E4D6234
:1002400001D006D8770E4D6201D042D8F1D7EFD752
:1002500001EE0CF1000EF76ED00EF66E30DF020EDE
:10026000016E000E0BB0010ECFDE020E016E000E0D
:100270000BB2010EC9DE020E016E000E0BB4010EB0
:10028000C3DE000EF76EE40EF66E19DFEF6A6DD86E
:1002900001EE0CF1000EF76EFC0EF66E10DF020E92
:1002A000016E000E0BB6010EAFDE020E016E000EE7
:1002B0000BB8010EA9DE020E016E000E0BBA010E84
:1002C000A3DE000EF76EE40EF66EF9DEEF6A4DD097
:1002D000506A4F6A526A516A546A536A51C1E8F4CB
:1002E000E8BA02D04F4A502A01015235050102E214
:1002F000514A522AC3C2E8F4E8B203D0B4C24DF561
:10030000F9D7534A542A1A0EE82EFED700000000EF
:10031000200E535C4E0E5458E1E301EE0CF1010E39
:10032000F76E100EF66ECBDE020E016E036A50C53C
:100330000AF54FC509F56BDE200EEE6E520EEE6E1D
:10034000430EEE6E370EEE6E3D0EEE6E020E016E39
:10035000036A52C50AF551C509F559DE010EF76E5B
:10036000240EF66EACDEEF6A00D04E6A01EE0CF1A0
:10037000000EEE5202E0E83EFCD7046E04504E60E0
:100380000DD0C3C2E8F4E8B8FCD701EE0CF14E5032
:10039000EB500201B66F4E2A0501E8D7C3C2E8F45C
:1003A000E8B8FCD702010D0EB66F0501C3C2E8F430
:1003B000E8B8FBD702010A0EB66F05011200FFD79D
:020000040030CA
:0B0000008C1DE5F69FFFFFFFFFFFFFD8
:00000001FF
