:020000040000FA
:10000000000000001FEF00F0036A026EFF0E0226E0
:10001000032200D0D8A01200030E016EE60E02D813
:10002000F5D7016AFE0F006E000000D000D0E86A2C
:10003000015AD8A01200000600D000D0F5D7000168
:10004000416B0401006B086B106B186B206B286B05
:10005000036B0B6B136B1B6B236B2B6B046B0C6BAE
:10006000146B1C6B246B2C6B0001706B746BF86A47
:10007000600EAD6F080EB16F0401006B086B106B62
:1000800001014A9D0201170E726F150E176FAE6BBC
:100090008A0EAD6FB00EAA6F800EAB6F066A0501B7
:1000A00005D8020E036EBC0EB0DFF9D7056AF76AF9
:1000B00005C5F6F4FC0EF626000EF7220800F5C47E
:1000C00004F5045204E013D8052A0552F0E1300E7D
:1000D0000624046E0CD80D0E046E09D80A0E046EA8
:1000E00006D8062A0A0E065C01E3066A1200AFC2B1
:1000F000E8F4E8B8FCD704C5A2F212005541525406
:0A0100002035365137312000FFD7BB
:020000040030CA
:0B0000008C1DE5F69FFFFFFFFFFFFFD8
:020000040038C2
:0800000011223348454C4C4F1E
:00000001FF
