:020000040000FA
:100000000000000046EF00F0036A026EFF0E0226B9
:10001000032200D0D8A01200030E016EE60E02D813
:10002000F5D7016AFE0F006E000000D000D0E86A2C
:10003000015AD8A01200000600D000D0F5D7056AFA
:10004000046A100EF36E0134043605360250045C67
:100050000350055805E30250045E0350055AD8804A
:1000600000360136F32EEFD7005012000250060280
:10007000F3C404F5F4C405F503500602F350052655
:1000800002500702F3500526045012000001416B94
:100090000401006B086B106B186B206B286B036BF3
:1000A0000B6B136B1B6B236B2B6B046B0C6B146B4D
:1000B0001C6B246B2C6B0001706B746BF86A600E08
:1000C000AD6F080EB16F0401006B086B106B186BFD
:1000D000010143914B914A9D0201170E726F150E5B
:1000E000176FAE6B8A0EAD6FB00EAA6F800EAB6F3E
:1000F000310E096E0501B6D8200E096EB3D8460E32
:10010000096EB0D8410E096EADD8530E096EAAD84B
:10011000540E096EA7D884D8010E0C6E1F0E0C6009
:100120000BD001014381320E6FDF01014391320E8A
:100130006BDF05010C2AF2E3320E096E93D8200E14
:10014000096E90D8460E096E8DD8410E096E8AD878
:10015000440E096E87D8450E096E84D861D80C6AA2
:10016000280E0C6005D00CC50DF524D80C2AF8E338
:100170000C6A280E0C6006D00C5027080D6E1AD899
:100180000C2AF7E3010143910B6A01014381640EDC
:100190003BDF01014391640E37DF01014381640EAF
:1001A00033DF01014391050141D8020E036EBC0EFD
:1001B0002CDFEBD7126A0DC511F512C507F511C575
:1001C00006F512C503F511C502F550DF116E05C520
:1001D00012F512C501F511C500F5036A270E026E6E
:1001E0002EDF116E01C512F511C50EF5010E0F6E51
:1001F000260E0F6014D0106A280E10600ED00E501C
:10020000106004D001014381050102D00101439136
:100210000501140E06DF102AEFE30F2AE9E31200AE
:100220000D0E096E1FD80A0E096E1CD00A6AF76AF5
:100230000AC5F6F4720EF626020EF7220800F5C47F
:1002400009F5095204E00ED80A2A0A52F0E1300EEC
:100250000B24096E07D8E4DF0B2A0A0E0B5C01E3BE
:100260000B6A1200AFC2E8F4E8B8FCD709C5A2F2E5
:100270001200554152542035365137312000FFD7F6
:020000040030CA
:0B0000008C1DE5F69FFFFFFFFFFFFFD8
:020000040038C2
:0800000011223348454C4C4F1E
:00000001FF
