:020000040000FA
:100000000000000012EF00F0016AFE0F006E000019
:1000100000D000D0E86A015AD8A01200000600D033
:1000200000D0F5D70001416B0401006B086B106B29
:10003000186B206B286B036B0B6B136B1B6B236BA9
:100040002B6B046B0C6B146B1C6B246B2C6B000107
:10005000706B746B600EAD6F080EB16F0401006BB6
:10006000086B106B0181098B0101418949990201DB
:10007000180E0D6F0D0E746FC26B8A0EC16FB00E2D
:10008000BE6F800EBF6F036A066A056A02800501B3
:10009000C3C2E8F4E8B204D0B4C204F51BD8F8D760
:1000A000010150510218010B050107E00101028016
:1000B00050A10290050102A04FD8320EA5DF054ADB
:1000C000062A100E055C270E065803E3066A056A29
:1000D0000ED8DDD7C3C2E8F4E8B8FCD704C5B6F241
:1000E00012000D0E046EF6DF0A0E046EF3D7480EF2
:1000F000046EF0DF650E046EEDDF6C0E046EEADF59
:100100006C0E046EE7DF6F0E046EE4DF2F0E046EDC
:10011000E1DF4D0E046EDEDF650E046EDBDF720E76
:10012000046ED8DF680E046ED5DF610E046ED2DF78
:10013000620E046ECFDF610E046ECCDF200E046E03
:10014000C9DF300E0324046EC5DFCBDF032A0A0E9D
:10015000035C01E3036A1200530E046EBBDF570E0B
:0E016000046EB8DF300E046EB5DFBBD7FFD7DC
:020000040030CA
:0B0000008C1DE5F69FFFFFFFFFFFFFD8
:00000001FF
