:020000040000FA
:10000000000000009AEF02F0036A0E6E0F6A00967D
:100010000350D8B40086040E026E0F3805D80F5076
:1000200003D80E3801D80E500F0BF60FD8B0070FBB
:100030000A0F20D0036A0E6E0F6A00960350D8B4E0
:100040000086050E026E270E0B6E100E0CD8030EE6
:100050000B6EE80E08D80B6A640E05D80B6A0A0E00
:1000600002D80E5007D00A6E0F50076E0E50066E63
:100070005DD80650066E024E0096035002E0025C08
:1000800007E20650D8A4009600B602D0300F01D087
:10009000120001A205D001B003D001B2EE6E120031
:1000A0000B6A0A6EFF0E0A260B2200D0D8A012009F
:1000B000030E076EE60E02D8F5D7076AFE0F066E2E
:1000C000000000D000D0E86A075AD8A01200060647
:1000D00000D000D0F5D7176A186A196A1A6A210E7B
:1000E0000C6E15D01736183619361A360E50175CA6
:1000F0000F5018581050195811501A5808E31A6E1A
:100100000E50175E0F50185A1050195AD8800636E4
:100110000736083609360C2EE5D71AC511F519C56C
:1001200010F518C50FF517500E6E12000F6A0E6A03
:10013000100EF36E07340E360F360A500E5C0B505D
:100140000F5805E30A500E5E0B500F5AD880063642
:100150000736F32EEFD70650120009C51AF508C569
:1001600019F507C518F506C517F519500E02F3C4A1
:1001700008F5F4C409F518500F02F3500826F4509E
:10018000092217501002F3500826F45009221A5081
:100190000E02F350092619500F02F3500926185089
:1001A0001002F350092617501102F3500926175078
:1001B0000E02F3C406F5F4C407F518500E02F3500E
:1001C0000726F4500822000E092217500F02F350A0
:1001D0000726F4500822000E092212000001416B8C
:1001E00005010900F55002E0EE6EFBD71200410E4A
:1001F000E75C05E65B0EE75C02E7200EE712E650DF
:10020000EE6EF5E112000001416B0501EE500900B0
:10021000F55C02E1F566FAD712004C45442028232C
:1002200029204F4E20202074696B20002F3420207D
:100230002074757220004C454420282029206F66C8
:10024000660020205357303D00004F4B2035333A95
:10025000204C45442050574D20302D3E6D61782D67
:100260003E3020283530302B353030206D73292C2E
:100270002073746F7020696C6520647572757200EC
:100280006F6B6D6E00004F4B206F6B6D6E3A204CA4
:1002900045442074696B2D74696B2D74696B2D74E2
:1002A000696B202B20333030206D732C2073746FDA
:1002B0007020696C6520647572757200636F6D657E
:1002C00000004F4B20636F6D653A2044415441203C
:1002D00068657220323530206D732C2073746F7016
:1002E00020696C65206475727572000073746F709C
:1002F00000004F4B2073746F703A2062656B6C691D
:10030000796F72202F2077616974696E6700686564
:100310006C7000003F2062696C696E6D6579656E76
:10032000206B6F6D7574202F20756E6B6E6F776EFE
:100330003A20000020202848455820002E2E2E2943
:1003400020202D3E2068656C70002D2D2064757274
:100350006475202F2073746F70706564202D2D00DC
:10036000434E414E4F5F4B4F4D555420353651371C
:10037000312068617A6972202F207265616479008A
:1003800020204B61626C6F20647572756D752069F9
:100390006C6B206B6F6D757474612062656C697233
:1003A0006C656E6972202F207769726520636865BD
:1003B000636B2061742074686520666972737420B1
:1003C000636F6D6D616E640020204B41424C4F4C59
:1003D0005520285242352D52433729202F20776946
:1003E0007265206669747465643A204C4544302017
:1003F000737572756C6D657A2C204C45442062755E
:100400007261646120676F73746572696C697200F0
:1004100020204B41424C4F53555A202F206E6F20C5
:10042000776972653A204C454430206B756C6C617D
:100430006E696C69796F7220282B20627572616415
:100440006120676F73746572696C6972290020207E
:100450006F6B6D6E2020284D6574696E2F54657822
:10046000742920204C45442074696B207834202B5B
:1004700020333030206D732C20737572656B6C697E
:1004800000002020353320202020284845582920EE
:1004900020202020202020204C45442050574D2053
:1004A000666164652C20737572656B6C6900202031
:1004B000636F6D652020284D6574696E2F546578D3
:1004C000742920204441544120686572203235301F
:1004D000206D732C20737572656B6C690000202091
:1004E00073746F7020206475726475727572202049
:1004F0002020202068656C7020206275206C697354
:10050000746500002020446973204C45442028690C
:100510007374656765206261676C69293A2052448B
:1005200030202D20316B202D204C4544202D20479C
:100530004E440000006A0001416B0401006B086B2F
:10054000106B186B206B286B036B0B6B136B1B6BA7
:10055000236B2B6B046B0C6B146B1C6B246B2C6B65
:100560000001706B746B600EAD6F080EB16F04010B
:10057000006B086B106B0181098B186B01014391B3
:100580004B914A8F0401118F0E8B168F0F9B179F73
:100590001C861C980101418949990201180E0D6FB2
:1005A0000D0E746FC26B8A0EC16FB00EBE6F800EDF
:1005B000BF6F0501A26B01EE7EF1EF6AA66BA76B20
:1005C000A86BA96BAA6BAC6BAB6B1C801C921C94C8
:1005D000640E50EC00F0CDEC05F0C3C2E8F4E8B2D4
:1005E0002BD0B4C2A4F51CA82DEC06F0A76B0D0E01
:1005F000A45D010ED8A4000E1B6E0A0EA45D010EB0
:10060000D8A4000E1B1204E0A25301E081D913D03C
:10061000A25302E1A4C5A3F5100EA2610CD001EE15
:100620007EF1A251A4C5EBF4A22BF36A01EE7EF198
:10063000A251F3C4EBF4D1D7020EAA630DD0A82BBC
:10064000270EA86501D0A86BA951A86102D01C8211
:1006500001D01C9250EC05F02E0E5DEC00F0A62BA4
:10066000130EA66502D0A66B01D8B7D7A25305E03A
:10067000A72B1D0EA76501D04BD9010150511C18A5
:10068000010B050112E001011C8050A11C90050125
:100690001CB00BD001EE1DF1530EEE6E570EEE6E38
:1006A000300EEE6EEF6AB3EC05F0AA5301E11200D2
:1006B000AB4BAC2BAA2D66D04C0EAB5D040EAC59E7
:1006C00004E3AC6BAB6BB94BBA2BACC5AEF5ABC5A9
:1006D000ADF51C92200EAD5D030EAE5913E2AEC512
:1006E00007F5ADC506F50B6AC80E0A6E96EC00F06C
:1006F0000FC505F50EC504F5055204E1500E046062
:1007000001D01C82CDD9E86A1CB2010F1CB40108CB
:1007100038E01C841CA21C941CA229D0AEC507F58D
:10072000ADC506F50B6AC80E0A6E96EC00F0B76F01
:10073000B72B01EE1DF1020EF76E1A0EF66EEEECFF
:1007400000F0020E016EB7511AEC00F0020EF76EC7
:100750002C0EF66EEEEC00F0020E016E036ABAC5C6
:100760000FF5B9C50EF51DEC00F0EF6A09D001EEEA
:100770001DF1020EF76E360EF66EEEEC00F0EF6A2B
:10078000F2D9C5D0020EAA6384D0E80EAB5D030E89
:10079000AC5904E3AC6BAB6BB94BBA2BACC5AEF543
:1007A000ABC5ADF5F40EAD5D010EAE5906E3AD512E
:1007B000E808AD6F030EAE55AE6FADC5B3F5AEC56F
:1007C000B4F5B56BB66BB3C513F5B4C514F5B5C5C3
:1007D00015F5B6C516F513C506F514C507F515C507
:1007E00008F516C509F5B3C50EF5B4C50FF5B5C5C1
:1007F00010F5B6C511F5ADEC00F006C513F507C54B
:1008000014F508C515F509C516F513C506F514C583
:1008100007F515C508F516C509F5116A106A0F6ABE
:10082000280E0E6EADEC00F006C513F507C514F5E5
:1008300008C515F509C516F513C506F514C507F560
:1008400015C508F516C509F5116A030E106ED00E10
:100850000F6E900E0E6E6BEC00F006C5B3F507C57B
:10086000B4F508C5B5F509C5B6F5B3C5A9F5ACC568
:1008700007F5ABC506F50B6A640E0A6E96EC00F040
:100880000FC5AEF50EC5ADF5AE51AD1101E11DD9E7
:100890003ED0030EAA633BD0AF51AB5DB051AC5913
:1008A00036E3600EAB5DEA0EAC5904E3AC6BAB6BA8
:1008B000B06BAF6BB14BB22BB86B010150B10501FE
:1008C000B82B01EE1DF1440EEE6E410EEE6E540E8D
:1008D000EE6E410EEE6E200EEE6E020E016E036A9B
:1008E000B2C50FF5B1C50EF51DEC00F0020EF76EA6
:1008F000420EF66EEEEC00F0020E016EB8511AECEC
:1009000000F0EF6A30D9FA0EAF27000EB0231200C4
:1009100001EE90F111EE7EF1F7EC00F0010EA25D18
:10092000010ED8A4000E1B6E530EA35D010ED8A4B9
:10093000000E1B1615E0A3D8020EAA6FAC6BAB6BB2
:10094000A86BA96BBA6B010EB96F01EE1DF1020E17
:10095000F76E4A0EF66EEEEC00F0EF6A04D989D01D
:10096000020EF76E800EF66E01EE90F103EC01F0D0
:1009700012E185D8010EAA6FAC6BAB6BBA6BB96F85
:1009800001EE1DF1020EF76E860EF66EEEEC00F033
:10099000EF6AE9D86ED0020EF76EBC0EF66E01EE6D
:1009A00090F103EC01F014E16AD8030EAA6FAC6B6E
:1009B000AB6BB06BAF6BB26BB16B01EE1DF1020EA6
:1009C000F76EC20EF66EEEEC00F0EF6ACCD851D0A6
:1009D000020EF76EEC0EF66E01EE90F103EC01F0F4
:1009E0000CE14DD801EE1DF1020EF76EF20EF66E1F
:1009F000EEEC00F0EF6AB7D83CD0030EF76E0E0EA7
:100A0000F66E01EE90F103EC01F002E1C6D831D0B0
:100A100001EE90F1EEC4F3F4EFC4F4F4F3503F0AA6
:100A2000F41002E1BAD825D001EE1DF1030EF76EE5
:100A3000140EF66EEEEC00F011EE7EF1110EE752A0
:100A400004E0E6C4EEF4E82EFAD7030EF76E340E97
:100A5000F66EEEEC00F0020E016E036EA35105EC93
:100A600000F0030EF76E3C0EF66EEEEC00F0EF6A4F
:100A70007AD8A26B01EE7EF1EF6AA76B1200AA533F
:100A80000AE001EE1DF1030EF76E4A0EF66EEEEC73
:100A900000F0EF6A68D8AA6BA96B1C921C9400D076
:100AA0001CA204D001014381050102D00101439140
:100AB00005011CB612001CA204D00101429F0501D1
:100AC00002D00101428F0501120001EE1DF14C0E12
:100AD000EE6E450EEE6E440EEE6E200EEE6E5B0E6A
:100AE000EE6EEF6AA56B140EA5611CD0D890A931EB
:100AF000046E056A055203E10450A56109D001EEB8
:100B00001DF1EE50FEE1ED52230EEE6EEF6A08D0BD
:100B100001EE1DF1EE50FEE1ED522D0EEE6EEF6A8C
:100B2000A52BE1D7A951050DF3C4B7F5D890B7337C
:100B300001EE1DF1EE50FEE1ED525D0EEE6E200E67
:100B4000EE6E020E016EB7511AEC00F0200EEE6E42
:100B5000250EEE6EEF6A07D0C3C2E8F4E8B8FCD702
:100B6000A4C5B6F21200A56B01EE1DF1000EEE5207
:100B700002E0E83EFCD7046E0450A56108D001EE07
:100B80001DF1A551EB50A46FE7DFA52BEDD70D0E9E
:100B9000A46FE2DF0A0EA46FDFD701EE1DF1030E92
:100BA000F76E600EF66EEEEC00F0EF6ADCDF1CB85C
:100BB0000BD001EE1DF1030EF76E800EF66EEEEC1B
:100BC00000F0EF6AD0DF17D01CA60BD001EE1DF1AC
:100BD000030EF76EC80EF66EEEEC00F0EF6AC3DFA0
:100BE0000AD001EE1DF1040EF76E100EF66EEEEC5B
:100BF00000F0EF6AB8DF01EE1DF1040EF76E4E0E45
:100C0000F66EEEEC00F0EF6AAEDF01EE1DF1040EC1
:100C1000F76E820EF66EEEEC00F0EF6AA4DF01EEE6
:100C20001DF1040EF76EAE0EF66EEEEC00F0EF6AFC
:100C30009ADF01EE1DF1040EF76EDE0EF66EEEEC9D
:100C400000F0EF6A90DF01EE1DF1050EF76E040E65
:100C5000F66EEEEC00F0EF6A86D70FC4E8F4E8AA6F
:100C60000ED004011735050102E31C8606D01C9640
:100C70000401119F0101428F4A9F05011C88040154
:0A0C80000F9B179F05011200FFD71C
:020000040030CA
:0B0000008C1DE5F69FFFFFFFFFFFFFD8
:00000001FF
