:020000040000FA
:100000000000000012EF00F0016AFE0F006E000019
:1000100000D000D0E86A015AD8A01200000600D033
:1000200000D0F5D70001416B0401006B086B106B29
:10003000186B206B286B036B0B6B136B1B6B236BA9
:100040002B6B046B0C6B146B1C6B246B2C6B000107
:10005000706B746B600EAD6F080EB16F0401006BB6
:10006000086B106B0181098B186B010143914B9157
:100070004A8F0401118F0E8B168F0F9B179F0282E0
:1000800002940101418949990201180E0D6F0D0E6C
:10009000746FC26B8A0EC16FB00EBE6F800EBF6FE1
:1000A000036A066A056A02800501C3C2E8F4E8B281
:1000B00006D0B4C204F502A4A9D833D8F6D70101FA
:1000C00050510218010B050107E00101028050A107
:1000D0000290050102A090D8320E96DF054A062A4A
:1000E000100E055C270E06581BE3066A056A01011F
:1000F0004331050104E301014391050102D00101EF
:100100004381050102B20BD001014235050104E330
:100110000101429F050102D00101428F05010ED865
:10012000C3D7C3C2E8F4E8B8FCD704C5B6F21200DE
:100130000D0E046EF6DF0A0E046EF3D7480E046E41
:10014000F0DF650E046EEDDF6C0E046EEADF6C0E00
:10015000046EE7DF6F0E046EE4DF2F0E046EE1DF46
:100160004D0E046EDEDF650E046EDBDF720E046E74
:10017000D8DF680E046ED5DF610E046ED2DF620E2A
:10018000046ECFDF610E046ECCDF200E046EC9DF7B
:10019000300E0324046EC5DF02B427D0200E046E97
:1001A000C0DF280E046EBDDF4C0E046EBADF450EB4
:1001B000046EB7DF440E046EB4DF3A0E046EB1DF96
:1001C000200E046EAEDF450E046EABDF6E0E046EC5
:1001D000A8DF740E046EA5DF650E046EA2DF720E3A
:1001E000046E9FDF290E046E9CDFA2DF032A0A0E35
:1001F000035C01E3036A1200530E046E92DF570E94
:10020000046E8FDF300E046E8CDF92D70FC4E8F4DB
:10021000E8AA0ED004011735050102E3028206D0D8
:1002200002920401119F0101428F4A9F050102843D
:0C02300004010F9B179F05011200FFD76F
:020000040030CA
:0B0000008C1DE5F69FFFFFFFFFFFFFD8
:00000001FF
